{
	"data": {
		"bytecode": {
			"linkReferences": {},
			"object": "608060405234801561001057600080fd5b50336000806101000a81548173ffffffffffffffffffffffffffffffffffffffff021916908373ffffffffffffffffffffffffffffffffffffffff16021790555060006006819055506000600760006101000a81548160ff021916908315150217905550610bc1806100836000396000f3fe608060405234801561001057600080fd5b50600436106100b45760003560e01c806395805dad1161007157806395805dad146101d5578063b688a36314610203578063bdb337d11461020d578063d1f9c24d1461022d578063d30895e41461024b578063d826f88f1461027f576100b4565b8063114f0e49146100b957806338dbdae1146100ed57806359a5f12d146101215780637cd3229a1461015557806387cb15f7146101735780638da5cb5b146101a1575b600080fd5b6100c1610289565b604051808273ffffffffffffffffffffffffffffffffffffffff16815260200191505060405180910390f35b6100f56102af565b604051808273ffffffffffffffffffffffffffffffffffffffff16815260200191505060405180910390f35b6101296102d5565b604051808273ffffffffffffffffffffffffffffffffffffffff16815260200191505060405180910390f35b61015d6102fb565b6040518082815260200191505060405180910390f35b61019f6004803603602081101561018957600080fd5b8101908080359060200190929190505050610301565b005b6101a96105ea565b604051808273ffffffffffffffffffffffffffffffffffffffff16815260200191505060405180910390f35b610201600480360360208110156101eb57600080fd5b810190808035906020019092919050505061060e565b005b61020b610701565b005b6102156108c4565b60405180821515815260200191505060405180910390f35b6102356108d7565b6040518082815260200191505060405180910390f35b6102536108dd565b604051808273ffffffffffffffffffffffffffffffffffffffff16815260200191505060405180910390f35b610287610903565b005b600460009054906101000a900473ffffffffffffffffffffffffffffffffffffffff1681565b600360009054906101000a900473ffffffffffffffffffffffffffffffffffffffff1681565b600260009054906101000a900473ffffffffffffffffffffffffffffffffffffffff1681565b60055481565b600064800000000060065416141561031857600080fd5b60008060036037600654901c169050600081141561035a57600160009054906101000a900473ffffffffffffffffffffffffffffffffffffffff1691506103f2565b600181141561038d57600260009054906101000a900473ffffffffffffffffffffffffffffffffffffffff1691506103f1565b60028114156103c057600360009054906101000a900473ffffffffffffffffffffffffffffffffffffffff1691506103f0565b60038114156103ef57600460009054906101000a900473ffffffffffffffffffffffffffffffffffffffff1691505b5b5b5b60008160060290506000600760038301600654901c1690506000600783600654901c1690503373ffffffffffffffffffffffffffffffffffffffff168573ffffffffffffffffffffffffffffffffffffffff161461044f57600080fd5b600086141561047757610469826001900392508282610a88565b61047257600080fd5b6104ec565b600186141561049e576104908282600101925082610a88565b61049957600080fd5b6104eb565b60028614156104c5576104b78260010192508282610a88565b6104c057600080fd5b6104ea565b60038614156104e9576104df828260019003925082610a88565b6104e857600080fd5b5b5b5b5b600081600384901b0190508381901b84603f901b19600654161760068190555060006007601d600654901c1690506000600484838702010290508087016001901b81600f901b19600554161760058190555061054d87600101975087610ad2565b156105ae5761056187600101975087610ad2565b156105ad5761057587600101975087610ad2565b156105ac578680600101975050602560038816901b6006819055506001600760006101000a81548160ff0219169083151502179055505b5b5b603787901b7ffffffffffffffffffffffffffffffffffffffffffffffffffe7fffffffffffff6006541617600681905550505050505050505050565b60008054906101000a900473ffffffffffffffffffffffffffffffffffffffff1681565b60008054906101000a900473ffffffffffffffffffffffffffffffffffffffff1673ffffffffffffffffffffffffffffffffffffffff163373ffffffffffffffffffffffffffffffffffffffff161461066657600080fd5b600560038203111561067757600080fd5b60046007601a600654901c161461068d57600080fd5b60018103816001830302016004026008901b8160018303600402026004901b600183036004026002901b6001010101600581905550600660018203901b600f60018303901b601260018403901b601560018503901b6310000000601d86901b64800000000001010101010160068190555050565b600064e000000000600654161461071757600080fd5b60006007601a600654901c1690506004811061073257600080fd5b6000600760006101000a81548160ff021916908315150217905550600081141561079c5733600160006101000a81548173ffffffffffffffffffffffffffffffffffffffff021916908373ffffffffffffffffffffffffffffffffffffffff160217905550610888565b60018114156107eb5733600260006101000a81548173ffffffffffffffffffffffffffffffffffffffff021916908373ffffffffffffffffffffffffffffffffffffffff160217905550610887565b600281141561083a5733600360006101000a81548173ffffffffffffffffffffffffffffffffffffffff021916908373ffffffffffffffffffffffffffffffffffffffff160217905550610886565b60038114156108855733600460006101000a81548173ffffffffffffffffffffffffffffffffffffffff021916908373ffffffffffffffffffffffffffffffffffffffff1602179055505b5b5b5b8080600101915050601a81901b7fffffffffffffffffffffffffffffffffffffffffffffffffffffffffe3ffffff600654161760068190555050565b600760009054906101000a900460ff1681565b60065481565b600160009054906101000a900473ffffffffffffffffffffffffffffffffffffffff1681565b60008054906101000a900473ffffffffffffffffffffffffffffffffffffffff1673ffffffffffffffffffffffffffffffffffffffff163373ffffffffffffffffffffffffffffffffffffffff161461095b57600080fd5b60006006819055506000600760006101000a81548160ff0219169083151502179055506000600160006101000a81548173ffffffffffffffffffffffffffffffffffffffff021916908373ffffffffffffffffffffffffffffffffffffffff1602179055506000600260006101000a81548173ffffffffffffffffffffffffffffffffffffffff021916908373ffffffffffffffffffffffffffffffffffffffff1602179055506000600360006101000a81548173ffffffffffffffffffffffffffffffffffffffff021916908373ffffffffffffffffffffffffffffffffffffffff1602179055506000600460006101000a81548173ffffffffffffffffffffffffffffffffffffffff021916908373ffffffffffffffffffffffffffffffffffffffff160217905550565b6000806007601d600654901c1690508084101580610aa65750808310155b15610ab5576000915050610acc565b60006004848387020102600f901b60055416149150505b92915050565b600080826021016001901b6006541614610aef5760019050610b86565b6003821691506000600760038460060201600654901c1690506000600784600602600654901c1690506000610b278360018401610a88565b80610b3b5750610b3a8360018403610a88565b5b80610b4f5750610b4e6001840183610a88565b5b80610b635750610b626001840383610a88565b5b1590508015610b7f57846021016001901b600654176006819055505b8093505050505b91905056fea2646970667358221220d1e4ef0984a64eeed6abd5c137214692486fd2033ae37de7fadfa46c9c2645f864736f6c63430007060033",
			"opcodes": "PUSH1 0x80 PUSH1 0x40 MSTORE CALLVALUE DUP1 ISZERO PUSH2 0x10 JUMPI PUSH1 0x0 DUP1 REVERT JUMPDEST POP CALLER PUSH1 0x0 DUP1 PUSH2 0x100 EXP DUP2 SLOAD DUP2 PUSH20 0xFFFFFFFFFFFFFFFFFFFFFFFFFFFFFFFFFFFFFFFF MUL NOT AND SWAP1 DUP4 PUSH20 0xFFFFFFFFFFFFFFFFFFFFFFFFFFFFFFFFFFFFFFFF AND MUL OR SWAP1 SSTORE POP PUSH1 0x0 PUSH1 0x6 DUP2 SWAP1 SSTORE POP PUSH1 0x0 PUSH1 0x7 PUSH1 0x0 PUSH2 0x100 EXP DUP2 SLOAD DUP2 PUSH1 0xFF MUL NOT AND SWAP1 DUP4 ISZERO ISZERO MUL OR SWAP1 SSTORE POP PUSH2 0xBC1 DUP1 PUSH2 0x83 PUSH1 0x0 CODECOPY PUSH1 0x0 RETURN INVALID PUSH1 0x80 PUSH1 0x40 MSTORE CALLVALUE DUP1 ISZERO PUSH2 0x10 JUMPI PUSH1 0x0 DUP1 REVERT JUMPDEST POP PUSH1 0x4 CALLDATASIZE LT PUSH2 0xB4 JUMPI PUSH1 0x0 CALLDATALOAD PUSH1 0xE0 SHR DUP1 PUSH4 0x95805DAD GT PUSH2 0x71 JUMPI DUP1 PUSH4 0x95805DAD EQ PUSH2 0x1D5 JUMPI DUP1 PUSH4 0xB688A363 EQ PUSH2 0x203 JUMPI DUP1 PUSH4 0xBDB337D1 EQ PUSH2 0x20D JUMPI DUP1 PUSH4 0xD1F9C24D EQ PUSH2 0x22D JUMPI DUP1 PUSH4 0xD30895E4 EQ PUSH2 0x24B JUMPI DUP1 PUSH4 0xD826F88F EQ PUSH2 0x27F JUMPI PUSH2 0xB4 JUMP JUMPDEST DUP1 PUSH4 0x114F0E49 EQ PUSH2 0xB9 JUMPI DUP1 PUSH4 0x38DBDAE1 EQ PUSH2 0xED JUMPI DUP1 PUSH4 0x59A5F12D EQ PUSH2 0x121 JUMPI DUP1 PUSH4 0x7CD3229A EQ PUSH2 0x155 JUMPI DUP1 PUSH4 0x87CB15F7 EQ PUSH2 0x173 JUMPI DUP1 PUSH4 0x8DA5CB5B EQ PUSH2 0x1A1 JUMPI JUMPDEST PUSH1 0x0 DUP1 REVERT JUMPDEST PUSH2 0xC1 PUSH2 0x289 JUMP JUMPDEST PUSH1 0x40 MLOAD DUP1 DUP3 PUSH20 0xFFFFFFFFFFFFFFFFFFFFFFFFFFFFFFFFFFFFFFFF AND DUP2 MSTORE PUSH1 0x20 ADD SWAP2 POP POP PUSH1 0x40 MLOAD DUP1 SWAP2 SUB SWAP1 RETURN JUMPDEST PUSH2 0xF5 PUSH2 0x2AF JUMP JUMPDEST PUSH1 0x40 MLOAD DUP1 DUP3 PUSH20 0xFFFFFFFFFFFFFFFFFFFFFFFFFFFFFFFFFFFFFFFF AND DUP2 MSTORE PUSH1 0x20 ADD SWAP2 POP POP PUSH1 0x40 MLOAD DUP1 SWAP2 SUB SWAP1 RETURN JUMPDEST PUSH2 0x129 PUSH2 0x2D5 JUMP JUMPDEST PUSH1 0x40 MLOAD DUP1 DUP3 PUSH20 0xFFFFFFFFFFFFFFFFFFFFFFFFFFFFFFFFFFFFFFFF AND DUP2 MSTORE PUSH1 0x20 ADD SWAP2 POP POP PUSH1 0x40 MLOAD DUP1 SWAP2 SUB SWAP1 RETURN JUMPDEST PUSH2 0x15D PUSH2 0x2FB JUMP JUMPDEST PUSH1 0x40 MLOAD DUP1 DUP3 DUP2 MSTORE PUSH1 0x20 ADD SWAP2 POP POP PUSH1 0x40 MLOAD DUP1 SWAP2 SUB SWAP1 RETURN JUMPDEST PUSH2 0x19F PUSH1 0x4 DUP1 CALLDATASIZE SUB PUSH1 0x20 DUP2 LT ISZERO PUSH2 0x189 JUMPI PUSH1 0x0 DUP1 REVERT JUMPDEST DUP2 ADD SWAP1 DUP1 DUP1 CALLDATALOAD SWAP1 PUSH1 0x20 ADD SWAP1 SWAP3 SWAP2 SWAP1 POP POP POP PUSH2 0x301 JUMP JUMPDEST STOP JUMPDEST PUSH2 0x1A9 PUSH2 0x5EA JUMP JUMPDEST PUSH1 0x40 MLOAD DUP1 DUP3 PUSH20 0xFFFFFFFFFFFFFFFFFFFFFFFFFFFFFFFFFFFFFFFF AND DUP2 MSTORE PUSH1 0x20 ADD SWAP2 POP POP PUSH1 0x40 MLOAD DUP1 SWAP2 SUB SWAP1 RETURN JUMPDEST PUSH2 0x201 PUSH1 0x4 DUP1 CALLDATASIZE SUB PUSH1 0x20 DUP2 LT ISZERO PUSH2 0x1EB JUMPI PUSH1 0x0 DUP1 REVERT JUMPDEST DUP2 ADD SWAP1 DUP1 DUP1 CALLDATALOAD SWAP1 PUSH1 0x20 ADD SWAP1 SWAP3 SWAP2 SWAP1 POP POP POP PUSH2 0x60E JUMP JUMPDEST STOP JUMPDEST PUSH2 0x20B PUSH2 0x701 JUMP JUMPDEST STOP JUMPDEST PUSH2 0x215 PUSH2 0x8C4 JUMP JUMPDEST PUSH1 0x40 MLOAD DUP1 DUP3 ISZERO ISZERO DUP2 MSTORE PUSH1 0x20 ADD SWAP2 POP POP PUSH1 0x40 MLOAD DUP1 SWAP2 SUB SWAP1 RETURN JUMPDEST PUSH2 0x235 PUSH2 0x8D7 JUMP JUMPDEST PUSH1 0x40 MLOAD DUP1 DUP3 DUP2 MSTORE PUSH1 0x20 ADD SWAP2 POP POP PUSH1 0x40 MLOAD DUP1 SWAP2 SUB SWAP1 RETURN JUMPDEST PUSH2 0x253 PUSH2 0x8DD JUMP JUMPDEST PUSH1 0x40 MLOAD DUP1 DUP3 PUSH20 0xFFFFFFFFFFFFFFFFFFFFFFFFFFFFFFFFFFFFFFFF AND DUP2 MSTORE PUSH1 0x20 ADD SWAP2 POP POP PUSH1 0x40 MLOAD DUP1 SWAP2 SUB SWAP1 RETURN JUMPDEST PUSH2 0x287 PUSH2 0x903 JUMP JUMPDEST STOP JUMPDEST PUSH1 0x4 PUSH1 0x0 SWAP1 SLOAD SWAP1 PUSH2 0x100 EXP SWAP1 DIV PUSH20 0xFFFFFFFFFFFFFFFFFFFFFFFFFFFFFFFFFFFFFFFF AND DUP2 JUMP JUMPDEST PUSH1 0x3 PUSH1 0x0 SWAP1 SLOAD SWAP1 PUSH2 0x100 EXP SWAP1 DIV PUSH20 0xFFFFFFFFFFFFFFFFFFFFFFFFFFFFFFFFFFFFFFFF AND DUP2 JUMP JUMPDEST PUSH1 0x2 PUSH1 0x0 SWAP1 SLOAD SWAP1 PUSH2 0x100 EXP SWAP1 DIV PUSH20 0xFFFFFFFFFFFFFFFFFFFFFFFFFFFFFFFFFFFFFFFF AND DUP2 JUMP JUMPDEST PUSH1 0x5 SLOAD DUP2 JUMP JUMPDEST PUSH1 0x0 PUSH5 0x8000000000 PUSH1 0x6 SLOAD AND EQ ISZERO PUSH2 0x318 JUMPI PUSH1 0x0 DUP1 REVERT JUMPDEST PUSH1 0x0 DUP1 PUSH1 0x3 PUSH1 0x37 PUSH1 0x6 SLOAD SWAP1 SHR AND SWAP1 POP PUSH1 0x0 DUP2 EQ ISZERO PUSH2 0x35A JUMPI PUSH1 0x1 PUSH1 0x0 SWAP1 SLOAD SWAP1 PUSH2 0x100 EXP SWAP1 DIV PUSH20 0xFFFFFFFFFFFFFFFFFFFFFFFFFFFFFFFFFFFFFFFF AND SWAP2 POP PUSH2 0x3F2 JUMP JUMPDEST PUSH1 0x1 DUP2 EQ ISZERO PUSH2 0x38D JUMPI PUSH1 0x2 PUSH1 0x0 SWAP1 SLOAD SWAP1 PUSH2 0x100 EXP SWAP1 DIV PUSH20 0xFFFFFFFFFFFFFFFFFFFFFFFFFFFFFFFFFFFFFFFF AND SWAP2 POP PUSH2 0x3F1 JUMP JUMPDEST PUSH1 0x2 DUP2 EQ ISZERO PUSH2 0x3C0 JUMPI PUSH1 0x3 PUSH1 0x0 SWAP1 SLOAD SWAP1 PUSH2 0x100 EXP SWAP1 DIV PUSH20 0xFFFFFFFFFFFFFFFFFFFFFFFFFFFFFFFFFFFFFFFF AND SWAP2 POP PUSH2 0x3F0 JUMP JUMPDEST PUSH1 0x3 DUP2 EQ ISZERO PUSH2 0x3EF JUMPI PUSH1 0x4 PUSH1 0x0 SWAP1 SLOAD SWAP1 PUSH2 0x100 EXP SWAP1 DIV PUSH20 0xFFFFFFFFFFFFFFFFFFFFFFFFFFFFFFFFFFFFFFFF AND SWAP2 POP JUMPDEST JUMPDEST JUMPDEST JUMPDEST PUSH1 0x0 DUP2 PUSH1 0x6 MUL SWAP1 POP PUSH1 0x0 PUSH1 0x7 PUSH1 0x3 DUP4 ADD PUSH1 0x6 SLOAD SWAP1 SHR AND SWAP1 POP PUSH1 0x0 PUSH1 0x7 DUP4 PUSH1 0x6 SLOAD SWAP1 SHR AND SWAP1 POP CALLER PUSH20 0xFFFFFFFFFFFFFFFFFFFFFFFFFFFFFFFFFFFFFFFF AND DUP6 PUSH20 0xFFFFFFFFFFFFFFFFFFFFFFFFFFFFFFFFFFFFFFFF AND EQ PUSH2 0x44F JUMPI PUSH1 0x0 DUP1 REVERT JUMPDEST PUSH1 0x0 DUP7 EQ ISZERO PUSH2 0x477 JUMPI PUSH2 0x469 DUP3 PUSH1 0x1 SWAP1 SUB SWAP3 POP DUP3 DUP3 PUSH2 0xA88 JUMP JUMPDEST PUSH2 0x472 JUMPI PUSH1 0x0 DUP1 REVERT JUMPDEST PUSH2 0x4EC JUMP JUMPDEST PUSH1 0x1 DUP7 EQ ISZERO PUSH2 0x49E JUMPI PUSH2 0x490 DUP3 DUP3 PUSH1 0x1 ADD SWAP3 POP DUP3 PUSH2 0xA88 JUMP JUMPDEST PUSH2 0x499 JUMPI PUSH1 0x0 DUP1 REVERT JUMPDEST PUSH2 0x4EB JUMP JUMPDEST PUSH1 0x2 DUP7 EQ ISZERO PUSH2 0x4C5 JUMPI PUSH2 0x4B7 DUP3 PUSH1 0x1 ADD SWAP3 POP DUP3 DUP3 PUSH2 0xA88 JUMP JUMPDEST PUSH2 0x4C0 JUMPI PUSH1 0x0 DUP1 REVERT JUMPDEST PUSH2 0x4EA JUMP JUMPDEST PUSH1 0x3 DUP7 EQ ISZERO PUSH2 0x4E9 JUMPI PUSH2 0x4DF DUP3 DUP3 PUSH1 0x1 SWAP1 SUB SWAP3 POP DUP3 PUSH2 0xA88 JUMP JUMPDEST PUSH2 0x4E8 JUMPI PUSH1 0x0 DUP1 REVERT JUMPDEST JUMPDEST JUMPDEST JUMPDEST JUMPDEST PUSH1 0x0 DUP2 PUSH1 0x3 DUP5 SWAP1 SHL ADD SWAP1 POP DUP4 DUP2 SWAP1 SHL DUP5 PUSH1 0x3F SWAP1 SHL NOT PUSH1 0x6 SLOAD AND OR PUSH1 0x6 DUP2 SWAP1 SSTORE POP PUSH1 0x0 PUSH1 0x7 PUSH1 0x1D PUSH1 0x6 SLOAD SWAP1 SHR AND SWAP1 POP PUSH1 0x0 PUSH1 0x4 DUP5 DUP4 DUP8 MUL ADD MUL SWAP1 POP DUP1 DUP8 ADD PUSH1 0x1 SWAP1 SHL DUP2 PUSH1 0xF SWAP1 SHL NOT PUSH1 0x5 SLOAD AND OR PUSH1 0x5 DUP2 SWAP1 SSTORE POP PUSH2 0x54D DUP8 PUSH1 0x1 ADD SWAP8 POP DUP8 PUSH2 0xAD2 JUMP JUMPDEST ISZERO PUSH2 0x5AE JUMPI PUSH2 0x561 DUP8 PUSH1 0x1 ADD SWAP8 POP DUP8 PUSH2 0xAD2 JUMP JUMPDEST ISZERO PUSH2 0x5AD JUMPI PUSH2 0x575 DUP8 PUSH1 0x1 ADD SWAP8 POP DUP8 PUSH2 0xAD2 JUMP JUMPDEST ISZERO PUSH2 0x5AC JUMPI DUP7 DUP1 PUSH1 0x1 ADD SWAP8 POP POP PUSH1 0x25 PUSH1 0x3 DUP9 AND SWAP1 SHL PUSH1 0x6 DUP2 SWAP1 SSTORE POP PUSH1 0x1 PUSH1 0x7 PUSH1 0x0 PUSH2 0x100 EXP DUP2 SLOAD DUP2 PUSH1 0xFF MUL NOT AND SWAP1 DUP4 ISZERO ISZERO MUL OR SWAP1 SSTORE POP JUMPDEST JUMPDEST JUMPDEST PUSH1 0x37 DUP8 SWAP1 SHL PUSH32 0xFFFFFFFFFFFFFFFFFFFFFFFFFFFFFFFFFFFFFFFFFFFFFFFFFE7FFFFFFFFFFFFF PUSH1 0x6 SLOAD AND OR PUSH1 0x6 DUP2 SWAP1 SSTORE POP POP POP POP POP POP POP POP POP POP JUMP JUMPDEST PUSH1 0x0 DUP1 SLOAD SWAP1 PUSH2 0x100 EXP SWAP1 DIV PUSH20 0xFFFFFFFFFFFFFFFFFFFFFFFFFFFFFFFFFFFFFFFF AND DUP2 JUMP JUMPDEST PUSH1 0x0 DUP1 SLOAD SWAP1 PUSH2 0x100 EXP SWAP1 DIV PUSH20 0xFFFFFFFFFFFFFFFFFFFFFFFFFFFFFFFFFFFFFFFF AND PUSH20 0xFFFFFFFFFFFFFFFFFFFFFFFFFFFFFFFFFFFFFFFF AND CALLER PUSH20 0xFFFFFFFFFFFFFFFFFFFFFFFFFFFFFFFFFFFFFFFF AND EQ PUSH2 0x666 JUMPI PUSH1 0x0 DUP1 REVERT JUMPDEST PUSH1 0x5 PUSH1 0x3 DUP3 SUB GT ISZERO PUSH2 0x677 JUMPI PUSH1 0x0 DUP1 REVERT JUMPDEST PUSH1 0x4 PUSH1 0x7 PUSH1 0x1A PUSH1 0x6 SLOAD SWAP1 SHR AND EQ PUSH2 0x68D JUMPI PUSH1 0x0 DUP1 REVERT JUMPDEST PUSH1 0x1 DUP2 SUB DUP2 PUSH1 0x1 DUP4 SUB MUL ADD PUSH1 0x4 MUL PUSH1 0x8 SWAP1 SHL DUP2 PUSH1 0x1 DUP4 SUB PUSH1 0x4 MUL MUL PUSH1 0x4 SWAP1 SHL PUSH1 0x1 DUP4 SUB PUSH1 0x4 MUL PUSH1 0x2 SWAP1 SHL PUSH1 0x1 ADD ADD ADD PUSH1 0x5 DUP2 SWAP1 SSTORE POP PUSH1 0x6 PUSH1 0x1 DUP3 SUB SWAP1 SHL PUSH1 0xF PUSH1 0x1 DUP4 SUB SWAP1 SHL PUSH1 0x12 PUSH1 0x1 DUP5 SUB SWAP1 SHL PUSH1 0x15 PUSH1 0x1 DUP6 SUB SWAP1 SHL PUSH4 0x10000000 PUSH1 0x1D DUP7 SWAP1 SHL PUSH5 0x8000000000 ADD ADD ADD ADD ADD ADD PUSH1 0x6 DUP2 SWAP1 SSTORE POP POP JUMP JUMPDEST PUSH1 0x0 PUSH5 0xE000000000 PUSH1 0x6 SLOAD AND EQ PUSH2 0x717 JUMPI PUSH1 0x0 DUP1 REVERT JUMPDEST PUSH1 0x0 PUSH1 0x7 PUSH1 0x1A PUSH1 0x6 SLOAD SWAP1 SHR AND SWAP1 POP PUSH1 0x4 DUP2 LT PUSH2 0x732 JUMPI PUSH1 0x0 DUP1 REVERT JUMPDEST PUSH1 0x0 PUSH1 0x7 PUSH1 0x0 PUSH2 0x100 EXP DUP2 SLOAD DUP2 PUSH1 0xFF MUL NOT AND SWAP1 DUP4 ISZERO ISZERO MUL OR SWAP1 SSTORE POP PUSH1 0x0 DUP2 EQ ISZERO PUSH2 0x79C JUMPI CALLER PUSH1 0x1 PUSH1 0x0 PUSH2 0x100 EXP DUP2 SLOAD DUP2 PUSH20 0xFFFFFFFFFFFFFFFFFFFFFFFFFFFFFFFFFFFFFFFF MUL NOT AND SWAP1 DUP4 PUSH20 0xFFFFFFFFFFFFFFFFFFFFFFFFFFFFFFFFFFFFFFFF AND MUL OR SWAP1 SSTORE POP PUSH2 0x888 JUMP JUMPDEST PUSH1 0x1 DUP2 EQ ISZERO PUSH2 0x7EB JUMPI CALLER PUSH1 0x2 PUSH1 0x0 PUSH2 0x100 EXP DUP2 SLOAD DUP2 PUSH20 0xFFFFFFFFFFFFFFFFFFFFFFFFFFFFFFFFFFFFFFFF MUL NOT AND SWAP1 DUP4 PUSH20 0xFFFFFFFFFFFFFFFFFFFFFFFFFFFFFFFFFFFFFFFF AND MUL OR SWAP1 SSTORE POP PUSH2 0x887 JUMP JUMPDEST PUSH1 0x2 DUP2 EQ ISZERO PUSH2 0x83A JUMPI CALLER PUSH1 0x3 PUSH1 0x0 PUSH2 0x100 EXP DUP2 SLOAD DUP2 PUSH20 0xFFFFFFFFFFFFFFFFFFFFFFFFFFFFFFFFFFFFFFFF MUL NOT AND SWAP1 DUP4 PUSH20 0xFFFFFFFFFFFFFFFFFFFFFFFFFFFFFFFFFFFFFFFF AND MUL OR SWAP1 SSTORE POP PUSH2 0x886 JUMP JUMPDEST PUSH1 0x3 DUP2 EQ ISZERO PUSH2 0x885 JUMPI CALLER PUSH1 0x4 PUSH1 0x0 PUSH2 0x100 EXP DUP2 SLOAD DUP2 PUSH20 0xFFFFFFFFFFFFFFFFFFFFFFFFFFFFFFFFFFFFFFFF MUL NOT AND SWAP1 DUP4 PUSH20 0xFFFFFFFFFFFFFFFFFFFFFFFFFFFFFFFFFFFFFFFF AND MUL OR SWAP1 SSTORE POP JUMPDEST JUMPDEST JUMPDEST JUMPDEST DUP1 DUP1 PUSH1 0x1 ADD SWAP2 POP POP PUSH1 0x1A DUP2 SWAP1 SHL PUSH32 0xFFFFFFFFFFFFFFFFFFFFFFFFFFFFFFFFFFFFFFFFFFFFFFFFFFFFFFFFE3FFFFFF PUSH1 0x6 SLOAD AND OR PUSH1 0x6 DUP2 SWAP1 SSTORE POP POP JUMP JUMPDEST PUSH1 0x7 PUSH1 0x0 SWAP1 SLOAD SWAP1 PUSH2 0x100 EXP SWAP1 DIV PUSH1 0xFF AND DUP2 JUMP JUMPDEST PUSH1 0x6 SLOAD DUP2 JUMP JUMPDEST PUSH1 0x1 PUSH1 0x0 SWAP1 SLOAD SWAP1 PUSH2 0x100 EXP SWAP1 DIV PUSH20 0xFFFFFFFFFFFFFFFFFFFFFFFFFFFFFFFFFFFFFFFF AND DUP2 JUMP JUMPDEST PUSH1 0x0 DUP1 SLOAD SWAP1 PUSH2 0x100 EXP SWAP1 DIV PUSH20 0xFFFFFFFFFFFFFFFFFFFFFFFFFFFFFFFFFFFFFFFF AND PUSH20 0xFFFFFFFFFFFFFFFFFFFFFFFFFFFFFFFFFFFFFFFF AND CALLER PUSH20 0xFFFFFFFFFFFFFFFFFFFFFFFFFFFFFFFFFFFFFFFF AND EQ PUSH2 0x95B JUMPI PUSH1 0x0 DUP1 REVERT JUMPDEST PUSH1 0x0 PUSH1 0x6 DUP2 SWAP1 SSTORE POP PUSH1 0x0 PUSH1 0x7 PUSH1 0x0 PUSH2 0x100 EXP DUP2 SLOAD DUP2 PUSH1 0xFF MUL NOT AND SWAP1 DUP4 ISZERO ISZERO MUL OR SWAP1 SSTORE POP PUSH1 0x0 PUSH1 0x1 PUSH1 0x0 PUSH2 0x100 EXP DUP2 SLOAD DUP2 PUSH20 0xFFFFFFFFFFFFFFFFFFFFFFFFFFFFFFFFFFFFFFFF MUL NOT AND SWAP1 DUP4 PUSH20 0xFFFFFFFFFFFFFFFFFFFFFFFFFFFFFFFFFFFFFFFF AND MUL OR SWAP1 SSTORE POP PUSH1 0x0 PUSH1 0x2 PUSH1 0x0 PUSH2 0x100 EXP DUP2 SLOAD DUP2 PUSH20 0xFFFFFFFFFFFFFFFFFFFFFFFFFFFFFFFFFFFFFFFF MUL NOT AND SWAP1 DUP4 PUSH20 0xFFFFFFFFFFFFFFFFFFFFFFFFFFFFFFFFFFFFFFFF AND MUL OR SWAP1 SSTORE POP PUSH1 0x0 PUSH1 0x3 PUSH1 0x0 PUSH2 0x100 EXP DUP2 SLOAD DUP2 PUSH20 0xFFFFFFFFFFFFFFFFFFFFFFFFFFFFFFFFFFFFFFFF MUL NOT AND SWAP1 DUP4 PUSH20 0xFFFFFFFFFFFFFFFFFFFFFFFFFFFFFFFFFFFFFFFF AND MUL OR SWAP1 SSTORE POP PUSH1 0x0 PUSH1 0x4 PUSH1 0x0 PUSH2 0x100 EXP DUP2 SLOAD DUP2 PUSH20 0xFFFFFFFFFFFFFFFFFFFFFFFFFFFFFFFFFFFFFFFF MUL NOT AND SWAP1 DUP4 PUSH20 0xFFFFFFFFFFFFFFFFFFFFFFFFFFFFFFFFFFFFFFFF AND MUL OR SWAP1 SSTORE POP JUMP JUMPDEST PUSH1 0x0 DUP1 PUSH1 0x7 PUSH1 0x1D PUSH1 0x6 SLOAD SWAP1 SHR AND SWAP1 POP DUP1 DUP5 LT ISZERO DUP1 PUSH2 0xAA6 JUMPI POP DUP1 DUP4 LT ISZERO JUMPDEST ISZERO PUSH2 0xAB5 JUMPI PUSH1 0x0 SWAP2 POP POP PUSH2 0xACC JUMP JUMPDEST PUSH1 0x0 PUSH1 0x4 DUP5 DUP4 DUP8 MUL ADD MUL PUSH1 0xF SWAP1 SHL PUSH1 0x5 SLOAD AND EQ SWAP2 POP POP JUMPDEST SWAP3 SWAP2 POP POP JUMP JUMPDEST PUSH1 0x0 DUP1 DUP3 PUSH1 0x21 ADD PUSH1 0x1 SWAP1 SHL PUSH1 0x6 SLOAD AND EQ PUSH2 0xAEF JUMPI PUSH1 0x1 SWAP1 POP PUSH2 0xB86 JUMP JUMPDEST PUSH1 0x3 DUP3 AND SWAP2 POP PUSH1 0x0 PUSH1 0x7 PUSH1 0x3 DUP5 PUSH1 0x6 MUL ADD PUSH1 0x6 SLOAD SWAP1 SHR AND SWAP1 POP PUSH1 0x0 PUSH1 0x7 DUP5 PUSH1 0x6 MUL PUSH1 0x6 SLOAD SWAP1 SHR AND SWAP1 POP PUSH1 0x0 PUSH2 0xB27 DUP4 PUSH1 0x1 DUP5 ADD PUSH2 0xA88 JUMP JUMPDEST DUP1 PUSH2 0xB3B JUMPI POP PUSH2 0xB3A DUP4 PUSH1 0x1 DUP5 SUB PUSH2 0xA88 JUMP JUMPDEST JUMPDEST DUP1 PUSH2 0xB4F JUMPI POP PUSH2 0xB4E PUSH1 0x1 DUP5 ADD DUP4 PUSH2 0xA88 JUMP JUMPDEST JUMPDEST DUP1 PUSH2 0xB63 JUMPI POP PUSH2 0xB62 PUSH1 0x1 DUP5 SUB DUP4 PUSH2 0xA88 JUMP JUMPDEST JUMPDEST ISZERO SWAP1 POP DUP1 ISZERO PUSH2 0xB7F JUMPI DUP5 PUSH1 0x21 ADD PUSH1 0x1 SWAP1 SHL PUSH1 0x6 SLOAD OR PUSH1 0x6 DUP2 SWAP1 SSTORE POP JUMPDEST DUP1 SWAP4 POP POP POP POP JUMPDEST SWAP2 SWAP1 POP JUMP INVALID LOG2 PUSH5 0x6970667358 0x22 SLT KECCAK256 0xD1 0xE4 0xEF MULMOD DUP5 0xA6 0x4E 0xEE 0xD6 0xAB 0xD5 0xC1 CALLDATACOPY 0x21 CHAINID SWAP3 0x48 PUSH16 0xD2033AE37DE7FADFA46C9C2645F86473 PUSH16 0x6C634300070600330000000000000000 "
		},
		"gasEstimates": {
			"creation": {
				"codeDepositCost": "601800",
				"executionCost": "47385",
				"totalCost": "649185"
			},
			"external": {
				"board()": "1072",
				"gameOver()": "1091",
				"gameState()": "1071",
				"join()": "64540",
				"move(uint256)": "infinite",
				"owner()": "1155",
				"player1()": "1135",
				"player2()": "1092",
				"player3()": "1070",
				"player4()": "1048",
				"reset()": "110470",
				"start(uint256)": "42213"
			},
			"internal": {
				"isBlocked(uint256)": "infinite",
				"isOpen(uint256,uint256)": "1762"
			}
		},
		"methodIdentifiers": {
			"board()": "7cd3229a",
			"gameOver()": "bdb337d1",
			"gameState()": "d1f9c24d",
			"join()": "b688a363",
			"move(uint256)": "87cb15f7",
			"owner()": "8da5cb5b",
			"player1()": "d30895e4",
			"player2()": "59a5f12d",
			"player3()": "38dbdae1",
			"player4()": "114f0e49",
			"reset()": "d826f88f",
			"start(uint256)": "95805dad"
		}
	},
	"abi": [
		{
			"inputs": [],
			"stateMutability": "nonpayable",
			"type": "constructor"
		},
		{
			"inputs": [],
			"name": "board",
			"outputs": [
				{
					"internalType": "uint256",
					"name": "",
					"type": "uint256"
				}
			],
			"stateMutability": "view",
			"type": "function"
		},
		{
			"inputs": [],
			"name": "gameOver",
			"outputs": [
				{
					"internalType": "bool",
					"name": "",
					"type": "bool"
				}
			],
			"stateMutability": "view",
			"type": "function"
		},
		{
			"inputs": [],
			"name": "gameState",
			"outputs": [
				{
					"internalType": "uint256",
					"name": "",
					"type": "uint256"
				}
			],
			"stateMutability": "view",
			"type": "function"
		},
		{
			"inputs": [],
			"name": "join",
			"outputs": [],
			"stateMutability": "nonpayable",
			"type": "function"
		},
		{
			"inputs": [
				{
					"internalType": "uint256",
					"name": "direction",
					"type": "uint256"
				}
			],
			"name": "move",
			"outputs": [],
			"stateMutability": "nonpayable",
			"type": "function"
		},
		{
			"inputs": [],
			"name": "owner",
			"outputs": [
				{
					"internalType": "address",
					"name": "",
					"type": "address"
				}
			],
			"stateMutability": "view",
			"type": "function"
		},
		{
			"inputs": [],
			"name": "player1",
			"outputs": [
				{
					"internalType": "address",
					"name": "",
					"type": "address"
				}
			],
			"stateMutability": "view",
			"type": "function"
		},
		{
			"inputs": [],
			"name": "player2",
			"outputs": [
				{
					"internalType": "address",
					"name": "",
					"type": "address"
				}
			],
			"stateMutability": "view",
			"type": "function"
		},
		{
			"inputs": [],
			"name": "player3",
			"outputs": [
				{
					"internalType": "address",
					"name": "",
					"type": "address"
				}
			],
			"stateMutability": "view",
			"type": "function"
		},
		{
			"inputs": [],
			"name": "player4",
			"outputs": [
				{
					"internalType": "address",
					"name": "",
					"type": "address"
				}
			],
			"stateMutability": "view",
			"type": "function"
		},
		{
			"inputs": [],
			"name": "reset",
			"outputs": [],
			"stateMutability": "nonpayable",
			"type": "function"
		},
		{
			"inputs": [
				{
					"internalType": "uint256",
					"name": "gameSize",
					"type": "uint256"
				}
			],
			"name": "start",
			"outputs": [],
			"stateMutability": "nonpayable",
			"type": "function"
		}
	]
}