{
	"data": {
		"bytecode": {
			"linkReferences": {},
			"object": "608060405234801561001057600080fd5b50336000806101000a81548173ffffffffffffffffffffffffffffffffffffffff021916908373ffffffffffffffffffffffffffffffffffffffff1602179055506000600681905550610a2a806100686000396000f3fe608060405234801561001057600080fd5b50600436106100a95760003560e01c80638da5cb5b116100715780638da5cb5b1461019657806395805dad146101ca578063b688a363146101f8578063d1f9c24d14610202578063d30895e414610220578063d826f88f14610254576100a9565b8063114f0e49146100ae57806338dbdae1146100e257806359a5f12d146101165780637cd3229a1461014a57806387cb15f714610168575b600080fd5b6100b661025e565b604051808273ffffffffffffffffffffffffffffffffffffffff16815260200191505060405180910390f35b6100ea610284565b604051808273ffffffffffffffffffffffffffffffffffffffff16815260200191505060405180910390f35b61011e6102aa565b604051808273ffffffffffffffffffffffffffffffffffffffff16815260200191505060405180910390f35b6101526102d0565b6040518082815260200191505060405180910390f35b6101946004803603602081101561017e57600080fd5b81019080803590602001909291905050506102d6565b005b61019e6105a4565b604051808273ffffffffffffffffffffffffffffffffffffffff16815260200191505060405180910390f35b6101f6600480360360208110156101e057600080fd5b81019080803590602001909291905050506105c8565b005b6102006106bb565b005b61020a610863565b6040518082815260200191505060405180910390f35b610228610869565b604051808273ffffffffffffffffffffffffffffffffffffffff16815260200191505060405180910390f35b61025c61088f565b005b600460009054906101000a900473ffffffffffffffffffffffffffffffffffffffff1681565b600360009054906101000a900473ffffffffffffffffffffffffffffffffffffffff1681565b600260009054906101000a900473ffffffffffffffffffffffffffffffffffffffff1681565b60055481565b60006480000000006006541614156102ed57600080fd5b60008060036037600654901c169050600081141561032f57600160009054906101000a900473ffffffffffffffffffffffffffffffffffffffff1691506103c7565b600181141561036257600260009054906101000a900473ffffffffffffffffffffffffffffffffffffffff1691506103c6565b600281141561039557600360009054906101000a900473ffffffffffffffffffffffffffffffffffffffff1691506103c5565b60038114156103c457600460009054906101000a900473ffffffffffffffffffffffffffffffffffffffff1691505b5b5b5b60008160060290506000600760038301600654901c1690506000600783600654901c1690503373ffffffffffffffffffffffffffffffffffffffff168573ffffffffffffffffffffffffffffffffffffffff161461042457600080fd5b600086141561044c5761043e8260019003925082826108f1565b61044757600080fd5b6104c1565b60018614156104735761046582826001019250826108f1565b61046e57600080fd5b6104c0565b600286141561049a5761048c82600101925082826108f1565b61049557600080fd5b6104bf565b60038614156104be576104b48282600190039250826108f1565b6104bd57600080fd5b5b5b5b5b600081600384901b0190508381901b84603f901b19600654161760068190555060006007601d600654901c1690506000600484838702010290508087016001901b81600f901b1960055416176005819055506105228760010197508761093b565b15610568576105368760010197508761093b565b156105675761054a8760010197508761093b565b15610566578680600101975050602560038816901b6006819055505b5b5b603787901b7ffffffffffffffffffffffffffffffffffffffffffffffffffe7fffffffffffff6006541617600681905550505050505050505050565b60008054906101000a900473ffffffffffffffffffffffffffffffffffffffff1681565b60008054906101000a900473ffffffffffffffffffffffffffffffffffffffff1673ffffffffffffffffffffffffffffffffffffffff163373ffffffffffffffffffffffffffffffffffffffff161461062057600080fd5b600560038203111561063157600080fd5b60046007601a600654901c161461064757600080fd5b60018103816001830302016004026008901b8160018303600402026004901b600183036004026002901b6001010101600581905550600660018203901b600f60018303901b601260018403901b601560018503901b6310000000601d86901b64800000000001010101010160068190555050565b600064e00000000060065416146106d157600080fd5b60006007601a600654901c169050600481106106ec57600080fd5b600081141561073b5733600160006101000a81548173ffffffffffffffffffffffffffffffffffffffff021916908373ffffffffffffffffffffffffffffffffffffffff160217905550610827565b600181141561078a5733600260006101000a81548173ffffffffffffffffffffffffffffffffffffffff021916908373ffffffffffffffffffffffffffffffffffffffff160217905550610826565b60028114156107d95733600360006101000a81548173ffffffffffffffffffffffffffffffffffffffff021916908373ffffffffffffffffffffffffffffffffffffffff160217905550610825565b60038114156108245733600460006101000a81548173ffffffffffffffffffffffffffffffffffffffff021916908373ffffffffffffffffffffffffffffffffffffffff1602179055505b5b5b5b8080600101915050601a81901b7fffffffffffffffffffffffffffffffffffffffffffffffffffffffffe3ffffff600654161760068190555050565b60065481565b600160009054906101000a900473ffffffffffffffffffffffffffffffffffffffff1681565b60008054906101000a900473ffffffffffffffffffffffffffffffffffffffff1673ffffffffffffffffffffffffffffffffffffffff163373ffffffffffffffffffffffffffffffffffffffff16146108e757600080fd5b6000600681905550565b6000806007601d600654901c169050808410158061090f5750808310155b1561091e576000915050610935565b60006004848387020102600f901b60055416149150505b92915050565b600080826021016001901b600654161461095857600190506109ef565b6003821691506000600760038460060201600654901c1690506000600784600602600654901c169050600061099083600184016108f1565b806109a457506109a383600184036108f1565b5b806109b857506109b760018401836108f1565b5b806109cc57506109cb60018403836108f1565b5b15905080156109e857846021016001901b600654176006819055505b8093505050505b91905056fea2646970667358221220cee62c9cec5ee281ea7349dee70aeae7c47d0091baa62ee3138c916ecc9f5bf964736f6c63430007060033",
			"opcodes": "PUSH1 0x80 PUSH1 0x40 MSTORE CALLVALUE DUP1 ISZERO PUSH2 0x10 JUMPI PUSH1 0x0 DUP1 REVERT JUMPDEST POP CALLER PUSH1 0x0 DUP1 PUSH2 0x100 EXP DUP2 SLOAD DUP2 PUSH20 0xFFFFFFFFFFFFFFFFFFFFFFFFFFFFFFFFFFFFFFFF MUL NOT AND SWAP1 DUP4 PUSH20 0xFFFFFFFFFFFFFFFFFFFFFFFFFFFFFFFFFFFFFFFF AND MUL OR SWAP1 SSTORE POP PUSH1 0x0 PUSH1 0x6 DUP2 SWAP1 SSTORE POP PUSH2 0xA2A DUP1 PUSH2 0x68 PUSH1 0x0 CODECOPY PUSH1 0x0 RETURN INVALID PUSH1 0x80 PUSH1 0x40 MSTORE CALLVALUE DUP1 ISZERO PUSH2 0x10 JUMPI PUSH1 0x0 DUP1 REVERT JUMPDEST POP PUSH1 0x4 CALLDATASIZE LT PUSH2 0xA9 JUMPI PUSH1 0x0 CALLDATALOAD PUSH1 0xE0 SHR DUP1 PUSH4 0x8DA5CB5B GT PUSH2 0x71 JUMPI DUP1 PUSH4 0x8DA5CB5B EQ PUSH2 0x196 JUMPI DUP1 PUSH4 0x95805DAD EQ PUSH2 0x1CA JUMPI DUP1 PUSH4 0xB688A363 EQ PUSH2 0x1F8 JUMPI DUP1 PUSH4 0xD1F9C24D EQ PUSH2 0x202 JUMPI DUP1 PUSH4 0xD30895E4 EQ PUSH2 0x220 JUMPI DUP1 PUSH4 0xD826F88F EQ PUSH2 0x254 JUMPI PUSH2 0xA9 JUMP JUMPDEST DUP1 PUSH4 0x114F0E49 EQ PUSH2 0xAE JUMPI DUP1 PUSH4 0x38DBDAE1 EQ PUSH2 0xE2 JUMPI DUP1 PUSH4 0x59A5F12D EQ PUSH2 0x116 JUMPI DUP1 PUSH4 0x7CD3229A EQ PUSH2 0x14A JUMPI DUP1 PUSH4 0x87CB15F7 EQ PUSH2 0x168 JUMPI JUMPDEST PUSH1 0x0 DUP1 REVERT JUMPDEST PUSH2 0xB6 PUSH2 0x25E JUMP JUMPDEST PUSH1 0x40 MLOAD DUP1 DUP3 PUSH20 0xFFFFFFFFFFFFFFFFFFFFFFFFFFFFFFFFFFFFFFFF AND DUP2 MSTORE PUSH1 0x20 ADD SWAP2 POP POP PUSH1 0x40 MLOAD DUP1 SWAP2 SUB SWAP1 RETURN JUMPDEST PUSH2 0xEA PUSH2 0x284 JUMP JUMPDEST PUSH1 0x40 MLOAD DUP1 DUP3 PUSH20 0xFFFFFFFFFFFFFFFFFFFFFFFFFFFFFFFFFFFFFFFF AND DUP2 MSTORE PUSH1 0x20 ADD SWAP2 POP POP PUSH1 0x40 MLOAD DUP1 SWAP2 SUB SWAP1 RETURN JUMPDEST PUSH2 0x11E PUSH2 0x2AA JUMP JUMPDEST PUSH1 0x40 MLOAD DUP1 DUP3 PUSH20 0xFFFFFFFFFFFFFFFFFFFFFFFFFFFFFFFFFFFFFFFF AND DUP2 MSTORE PUSH1 0x20 ADD SWAP2 POP POP PUSH1 0x40 MLOAD DUP1 SWAP2 SUB SWAP1 RETURN JUMPDEST PUSH2 0x152 PUSH2 0x2D0 JUMP JUMPDEST PUSH1 0x40 MLOAD DUP1 DUP3 DUP2 MSTORE PUSH1 0x20 ADD SWAP2 POP POP PUSH1 0x40 MLOAD DUP1 SWAP2 SUB SWAP1 RETURN JUMPDEST PUSH2 0x194 PUSH1 0x4 DUP1 CALLDATASIZE SUB PUSH1 0x20 DUP2 LT ISZERO PUSH2 0x17E JUMPI PUSH1 0x0 DUP1 REVERT JUMPDEST DUP2 ADD SWAP1 DUP1 DUP1 CALLDATALOAD SWAP1 PUSH1 0x20 ADD SWAP1 SWAP3 SWAP2 SWAP1 POP POP POP PUSH2 0x2D6 JUMP JUMPDEST STOP JUMPDEST PUSH2 0x19E PUSH2 0x5A4 JUMP JUMPDEST PUSH1 0x40 MLOAD DUP1 DUP3 PUSH20 0xFFFFFFFFFFFFFFFFFFFFFFFFFFFFFFFFFFFFFFFF AND DUP2 MSTORE PUSH1 0x20 ADD SWAP2 POP POP PUSH1 0x40 MLOAD DUP1 SWAP2 SUB SWAP1 RETURN JUMPDEST PUSH2 0x1F6 PUSH1 0x4 DUP1 CALLDATASIZE SUB PUSH1 0x20 DUP2 LT ISZERO PUSH2 0x1E0 JUMPI PUSH1 0x0 DUP1 REVERT JUMPDEST DUP2 ADD SWAP1 DUP1 DUP1 CALLDATALOAD SWAP1 PUSH1 0x20 ADD SWAP1 SWAP3 SWAP2 SWAP1 POP POP POP PUSH2 0x5C8 JUMP JUMPDEST STOP JUMPDEST PUSH2 0x200 PUSH2 0x6BB JUMP JUMPDEST STOP JUMPDEST PUSH2 0x20A PUSH2 0x863 JUMP JUMPDEST PUSH1 0x40 MLOAD DUP1 DUP3 DUP2 MSTORE PUSH1 0x20 ADD SWAP2 POP POP PUSH1 0x40 MLOAD DUP1 SWAP2 SUB SWAP1 RETURN JUMPDEST PUSH2 0x228 PUSH2 0x869 JUMP JUMPDEST PUSH1 0x40 MLOAD DUP1 DUP3 PUSH20 0xFFFFFFFFFFFFFFFFFFFFFFFFFFFFFFFFFFFFFFFF AND DUP2 MSTORE PUSH1 0x20 ADD SWAP2 POP POP PUSH1 0x40 MLOAD DUP1 SWAP2 SUB SWAP1 RETURN JUMPDEST PUSH2 0x25C PUSH2 0x88F JUMP JUMPDEST STOP JUMPDEST PUSH1 0x4 PUSH1 0x0 SWAP1 SLOAD SWAP1 PUSH2 0x100 EXP SWAP1 DIV PUSH20 0xFFFFFFFFFFFFFFFFFFFFFFFFFFFFFFFFFFFFFFFF AND DUP2 JUMP JUMPDEST PUSH1 0x3 PUSH1 0x0 SWAP1 SLOAD SWAP1 PUSH2 0x100 EXP SWAP1 DIV PUSH20 0xFFFFFFFFFFFFFFFFFFFFFFFFFFFFFFFFFFFFFFFF AND DUP2 JUMP JUMPDEST PUSH1 0x2 PUSH1 0x0 SWAP1 SLOAD SWAP1 PUSH2 0x100 EXP SWAP1 DIV PUSH20 0xFFFFFFFFFFFFFFFFFFFFFFFFFFFFFFFFFFFFFFFF AND DUP2 JUMP JUMPDEST PUSH1 0x5 SLOAD DUP2 JUMP JUMPDEST PUSH1 0x0 PUSH5 0x8000000000 PUSH1 0x6 SLOAD AND EQ ISZERO PUSH2 0x2ED JUMPI PUSH1 0x0 DUP1 REVERT JUMPDEST PUSH1 0x0 DUP1 PUSH1 0x3 PUSH1 0x37 PUSH1 0x6 SLOAD SWAP1 SHR AND SWAP1 POP PUSH1 0x0 DUP2 EQ ISZERO PUSH2 0x32F JUMPI PUSH1 0x1 PUSH1 0x0 SWAP1 SLOAD SWAP1 PUSH2 0x100 EXP SWAP1 DIV PUSH20 0xFFFFFFFFFFFFFFFFFFFFFFFFFFFFFFFFFFFFFFFF AND SWAP2 POP PUSH2 0x3C7 JUMP JUMPDEST PUSH1 0x1 DUP2 EQ ISZERO PUSH2 0x362 JUMPI PUSH1 0x2 PUSH1 0x0 SWAP1 SLOAD SWAP1 PUSH2 0x100 EXP SWAP1 DIV PUSH20 0xFFFFFFFFFFFFFFFFFFFFFFFFFFFFFFFFFFFFFFFF AND SWAP2 POP PUSH2 0x3C6 JUMP JUMPDEST PUSH1 0x2 DUP2 EQ ISZERO PUSH2 0x395 JUMPI PUSH1 0x3 PUSH1 0x0 SWAP1 SLOAD SWAP1 PUSH2 0x100 EXP SWAP1 DIV PUSH20 0xFFFFFFFFFFFFFFFFFFFFFFFFFFFFFFFFFFFFFFFF AND SWAP2 POP PUSH2 0x3C5 JUMP JUMPDEST PUSH1 0x3 DUP2 EQ ISZERO PUSH2 0x3C4 JUMPI PUSH1 0x4 PUSH1 0x0 SWAP1 SLOAD SWAP1 PUSH2 0x100 EXP SWAP1 DIV PUSH20 0xFFFFFFFFFFFFFFFFFFFFFFFFFFFFFFFFFFFFFFFF AND SWAP2 POP JUMPDEST JUMPDEST JUMPDEST JUMPDEST PUSH1 0x0 DUP2 PUSH1 0x6 MUL SWAP1 POP PUSH1 0x0 PUSH1 0x7 PUSH1 0x3 DUP4 ADD PUSH1 0x6 SLOAD SWAP1 SHR AND SWAP1 POP PUSH1 0x0 PUSH1 0x7 DUP4 PUSH1 0x6 SLOAD SWAP1 SHR AND SWAP1 POP CALLER PUSH20 0xFFFFFFFFFFFFFFFFFFFFFFFFFFFFFFFFFFFFFFFF AND DUP6 PUSH20 0xFFFFFFFFFFFFFFFFFFFFFFFFFFFFFFFFFFFFFFFF AND EQ PUSH2 0x424 JUMPI PUSH1 0x0 DUP1 REVERT JUMPDEST PUSH1 0x0 DUP7 EQ ISZERO PUSH2 0x44C JUMPI PUSH2 0x43E DUP3 PUSH1 0x1 SWAP1 SUB SWAP3 POP DUP3 DUP3 PUSH2 0x8F1 JUMP JUMPDEST PUSH2 0x447 JUMPI PUSH1 0x0 DUP1 REVERT JUMPDEST PUSH2 0x4C1 JUMP JUMPDEST PUSH1 0x1 DUP7 EQ ISZERO PUSH2 0x473 JUMPI PUSH2 0x465 DUP3 DUP3 PUSH1 0x1 ADD SWAP3 POP DUP3 PUSH2 0x8F1 JUMP JUMPDEST PUSH2 0x46E JUMPI PUSH1 0x0 DUP1 REVERT JUMPDEST PUSH2 0x4C0 JUMP JUMPDEST PUSH1 0x2 DUP7 EQ ISZERO PUSH2 0x49A JUMPI PUSH2 0x48C DUP3 PUSH1 0x1 ADD SWAP3 POP DUP3 DUP3 PUSH2 0x8F1 JUMP JUMPDEST PUSH2 0x495 JUMPI PUSH1 0x0 DUP1 REVERT JUMPDEST PUSH2 0x4BF JUMP JUMPDEST PUSH1 0x3 DUP7 EQ ISZERO PUSH2 0x4BE JUMPI PUSH2 0x4B4 DUP3 DUP3 PUSH1 0x1 SWAP1 SUB SWAP3 POP DUP3 PUSH2 0x8F1 JUMP JUMPDEST PUSH2 0x4BD JUMPI PUSH1 0x0 DUP1 REVERT JUMPDEST JUMPDEST JUMPDEST JUMPDEST JUMPDEST PUSH1 0x0 DUP2 PUSH1 0x3 DUP5 SWAP1 SHL ADD SWAP1 POP DUP4 DUP2 SWAP1 SHL DUP5 PUSH1 0x3F SWAP1 SHL NOT PUSH1 0x6 SLOAD AND OR PUSH1 0x6 DUP2 SWAP1 SSTORE POP PUSH1 0x0 PUSH1 0x7 PUSH1 0x1D PUSH1 0x6 SLOAD SWAP1 SHR AND SWAP1 POP PUSH1 0x0 PUSH1 0x4 DUP5 DUP4 DUP8 MUL ADD MUL SWAP1 POP DUP1 DUP8 ADD PUSH1 0x1 SWAP1 SHL DUP2 PUSH1 0xF SWAP1 SHL NOT PUSH1 0x5 SLOAD AND OR PUSH1 0x5 DUP2 SWAP1 SSTORE POP PUSH2 0x522 DUP8 PUSH1 0x1 ADD SWAP8 POP DUP8 PUSH2 0x93B JUMP JUMPDEST ISZERO PUSH2 0x568 JUMPI PUSH2 0x536 DUP8 PUSH1 0x1 ADD SWAP8 POP DUP8 PUSH2 0x93B JUMP JUMPDEST ISZERO PUSH2 0x567 JUMPI PUSH2 0x54A DUP8 PUSH1 0x1 ADD SWAP8 POP DUP8 PUSH2 0x93B JUMP JUMPDEST ISZERO PUSH2 0x566 JUMPI DUP7 DUP1 PUSH1 0x1 ADD SWAP8 POP POP PUSH1 0x25 PUSH1 0x3 DUP9 AND SWAP1 SHL PUSH1 0x6 DUP2 SWAP1 SSTORE POP JUMPDEST JUMPDEST JUMPDEST PUSH1 0x37 DUP8 SWAP1 SHL PUSH32 0xFFFFFFFFFFFFFFFFFFFFFFFFFFFFFFFFFFFFFFFFFFFFFFFFFE7FFFFFFFFFFFFF PUSH1 0x6 SLOAD AND OR PUSH1 0x6 DUP2 SWAP1 SSTORE POP POP POP POP POP POP POP POP POP POP JUMP JUMPDEST PUSH1 0x0 DUP1 SLOAD SWAP1 PUSH2 0x100 EXP SWAP1 DIV PUSH20 0xFFFFFFFFFFFFFFFFFFFFFFFFFFFFFFFFFFFFFFFF AND DUP2 JUMP JUMPDEST PUSH1 0x0 DUP1 SLOAD SWAP1 PUSH2 0x100 EXP SWAP1 DIV PUSH20 0xFFFFFFFFFFFFFFFFFFFFFFFFFFFFFFFFFFFFFFFF AND PUSH20 0xFFFFFFFFFFFFFFFFFFFFFFFFFFFFFFFFFFFFFFFF AND CALLER PUSH20 0xFFFFFFFFFFFFFFFFFFFFFFFFFFFFFFFFFFFFFFFF AND EQ PUSH2 0x620 JUMPI PUSH1 0x0 DUP1 REVERT JUMPDEST PUSH1 0x5 PUSH1 0x3 DUP3 SUB GT ISZERO PUSH2 0x631 JUMPI PUSH1 0x0 DUP1 REVERT JUMPDEST PUSH1 0x4 PUSH1 0x7 PUSH1 0x1A PUSH1 0x6 SLOAD SWAP1 SHR AND EQ PUSH2 0x647 JUMPI PUSH1 0x0 DUP1 REVERT JUMPDEST PUSH1 0x1 DUP2 SUB DUP2 PUSH1 0x1 DUP4 SUB MUL ADD PUSH1 0x4 MUL PUSH1 0x8 SWAP1 SHL DUP2 PUSH1 0x1 DUP4 SUB PUSH1 0x4 MUL MUL PUSH1 0x4 SWAP1 SHL PUSH1 0x1 DUP4 SUB PUSH1 0x4 MUL PUSH1 0x2 SWAP1 SHL PUSH1 0x1 ADD ADD ADD PUSH1 0x5 DUP2 SWAP1 SSTORE POP PUSH1 0x6 PUSH1 0x1 DUP3 SUB SWAP1 SHL PUSH1 0xF PUSH1 0x1 DUP4 SUB SWAP1 SHL PUSH1 0x12 PUSH1 0x1 DUP5 SUB SWAP1 SHL PUSH1 0x15 PUSH1 0x1 DUP6 SUB SWAP1 SHL PUSH4 0x10000000 PUSH1 0x1D DUP7 SWAP1 SHL PUSH5 0x8000000000 ADD ADD ADD ADD ADD ADD PUSH1 0x6 DUP2 SWAP1 SSTORE POP POP JUMP JUMPDEST PUSH1 0x0 PUSH5 0xE000000000 PUSH1 0x6 SLOAD AND EQ PUSH2 0x6D1 JUMPI PUSH1 0x0 DUP1 REVERT JUMPDEST PUSH1 0x0 PUSH1 0x7 PUSH1 0x1A PUSH1 0x6 SLOAD SWAP1 SHR AND SWAP1 POP PUSH1 0x4 DUP2 LT PUSH2 0x6EC JUMPI PUSH1 0x0 DUP1 REVERT JUMPDEST PUSH1 0x0 DUP2 EQ ISZERO PUSH2 0x73B JUMPI CALLER PUSH1 0x1 PUSH1 0x0 PUSH2 0x100 EXP DUP2 SLOAD DUP2 PUSH20 0xFFFFFFFFFFFFFFFFFFFFFFFFFFFFFFFFFFFFFFFF MUL NOT AND SWAP1 DUP4 PUSH20 0xFFFFFFFFFFFFFFFFFFFFFFFFFFFFFFFFFFFFFFFF AND MUL OR SWAP1 SSTORE POP PUSH2 0x827 JUMP JUMPDEST PUSH1 0x1 DUP2 EQ ISZERO PUSH2 0x78A JUMPI CALLER PUSH1 0x2 PUSH1 0x0 PUSH2 0x100 EXP DUP2 SLOAD DUP2 PUSH20 0xFFFFFFFFFFFFFFFFFFFFFFFFFFFFFFFFFFFFFFFF MUL NOT AND SWAP1 DUP4 PUSH20 0xFFFFFFFFFFFFFFFFFFFFFFFFFFFFFFFFFFFFFFFF AND MUL OR SWAP1 SSTORE POP PUSH2 0x826 JUMP JUMPDEST PUSH1 0x2 DUP2 EQ ISZERO PUSH2 0x7D9 JUMPI CALLER PUSH1 0x3 PUSH1 0x0 PUSH2 0x100 EXP DUP2 SLOAD DUP2 PUSH20 0xFFFFFFFFFFFFFFFFFFFFFFFFFFFFFFFFFFFFFFFF MUL NOT AND SWAP1 DUP4 PUSH20 0xFFFFFFFFFFFFFFFFFFFFFFFFFFFFFFFFFFFFFFFF AND MUL OR SWAP1 SSTORE POP PUSH2 0x825 JUMP JUMPDEST PUSH1 0x3 DUP2 EQ ISZERO PUSH2 0x824 JUMPI CALLER PUSH1 0x4 PUSH1 0x0 PUSH2 0x100 EXP DUP2 SLOAD DUP2 PUSH20 0xFFFFFFFFFFFFFFFFFFFFFFFFFFFFFFFFFFFFFFFF MUL NOT AND SWAP1 DUP4 PUSH20 0xFFFFFFFFFFFFFFFFFFFFFFFFFFFFFFFFFFFFFFFF AND MUL OR SWAP1 SSTORE POP JUMPDEST JUMPDEST JUMPDEST JUMPDEST DUP1 DUP1 PUSH1 0x1 ADD SWAP2 POP POP PUSH1 0x1A DUP2 SWAP1 SHL PUSH32 0xFFFFFFFFFFFFFFFFFFFFFFFFFFFFFFFFFFFFFFFFFFFFFFFFFFFFFFFFE3FFFFFF PUSH1 0x6 SLOAD AND OR PUSH1 0x6 DUP2 SWAP1 SSTORE POP POP JUMP JUMPDEST PUSH1 0x6 SLOAD DUP2 JUMP JUMPDEST PUSH1 0x1 PUSH1 0x0 SWAP1 SLOAD SWAP1 PUSH2 0x100 EXP SWAP1 DIV PUSH20 0xFFFFFFFFFFFFFFFFFFFFFFFFFFFFFFFFFFFFFFFF AND DUP2 JUMP JUMPDEST PUSH1 0x0 DUP1 SLOAD SWAP1 PUSH2 0x100 EXP SWAP1 DIV PUSH20 0xFFFFFFFFFFFFFFFFFFFFFFFFFFFFFFFFFFFFFFFF AND PUSH20 0xFFFFFFFFFFFFFFFFFFFFFFFFFFFFFFFFFFFFFFFF AND CALLER PUSH20 0xFFFFFFFFFFFFFFFFFFFFFFFFFFFFFFFFFFFFFFFF AND EQ PUSH2 0x8E7 JUMPI PUSH1 0x0 DUP1 REVERT JUMPDEST PUSH1 0x0 PUSH1 0x6 DUP2 SWAP1 SSTORE POP JUMP JUMPDEST PUSH1 0x0 DUP1 PUSH1 0x7 PUSH1 0x1D PUSH1 0x6 SLOAD SWAP1 SHR AND SWAP1 POP DUP1 DUP5 LT ISZERO DUP1 PUSH2 0x90F JUMPI POP DUP1 DUP4 LT ISZERO JUMPDEST ISZERO PUSH2 0x91E JUMPI PUSH1 0x0 SWAP2 POP POP PUSH2 0x935 JUMP JUMPDEST PUSH1 0x0 PUSH1 0x4 DUP5 DUP4 DUP8 MUL ADD MUL PUSH1 0xF SWAP1 SHL PUSH1 0x5 SLOAD AND EQ SWAP2 POP POP JUMPDEST SWAP3 SWAP2 POP POP JUMP JUMPDEST PUSH1 0x0 DUP1 DUP3 PUSH1 0x21 ADD PUSH1 0x1 SWAP1 SHL PUSH1 0x6 SLOAD AND EQ PUSH2 0x958 JUMPI PUSH1 0x1 SWAP1 POP PUSH2 0x9EF JUMP JUMPDEST PUSH1 0x3 DUP3 AND SWAP2 POP PUSH1 0x0 PUSH1 0x7 PUSH1 0x3 DUP5 PUSH1 0x6 MUL ADD PUSH1 0x6 SLOAD SWAP1 SHR AND SWAP1 POP PUSH1 0x0 PUSH1 0x7 DUP5 PUSH1 0x6 MUL PUSH1 0x6 SLOAD SWAP1 SHR AND SWAP1 POP PUSH1 0x0 PUSH2 0x990 DUP4 PUSH1 0x1 DUP5 ADD PUSH2 0x8F1 JUMP JUMPDEST DUP1 PUSH2 0x9A4 JUMPI POP PUSH2 0x9A3 DUP4 PUSH1 0x1 DUP5 SUB PUSH2 0x8F1 JUMP JUMPDEST JUMPDEST DUP1 PUSH2 0x9B8 JUMPI POP PUSH2 0x9B7 PUSH1 0x1 DUP5 ADD DUP4 PUSH2 0x8F1 JUMP JUMPDEST JUMPDEST DUP1 PUSH2 0x9CC JUMPI POP PUSH2 0x9CB PUSH1 0x1 DUP5 SUB DUP4 PUSH2 0x8F1 JUMP JUMPDEST JUMPDEST ISZERO SWAP1 POP DUP1 ISZERO PUSH2 0x9E8 JUMPI DUP5 PUSH1 0x21 ADD PUSH1 0x1 SWAP1 SHL PUSH1 0x6 SLOAD OR PUSH1 0x6 DUP2 SWAP1 SSTORE POP JUMPDEST DUP1 SWAP4 POP POP POP POP JUMPDEST SWAP2 SWAP1 POP JUMP INVALID LOG2 PUSH5 0x6970667358 0x22 SLT KECCAK256 0xCE 0xE6 0x2C SWAP13 0xEC 0x5E 0xE2 DUP2 0xEA PUSH20 0x49DEE70AEAE7C47D0091BAA62EE3138C916ECC9F JUMPDEST 0xF9 PUSH5 0x736F6C6343 STOP SMOD MOD STOP CALLER "
		},
		"gasEstimates": {
			"creation": {
				"codeDepositCost": "520400",
				"executionCost": "26436",
				"totalCost": "546836"
			},
			"external": {
				"board()": "1072",
				"gameState()": "1071",
				"join()": "43695",
				"move(uint256)": "infinite",
				"owner()": "1044",
				"player1()": "1135",
				"player2()": "1092",
				"player3()": "1070",
				"player4()": "1048",
				"reset()": "6135",
				"start(uint256)": "42235"
			},
			"internal": {
				"isBlocked(uint256)": "infinite",
				"isOpen(uint256,uint256)": "1762"
			}
		},
		"methodIdentifiers": {
			"board()": "7cd3229a",
			"gameState()": "d1f9c24d",
			"join()": "b688a363",
			"move(uint256)": "87cb15f7",
			"owner()": "8da5cb5b",
			"player1()": "d30895e4",
			"player2()": "59a5f12d",
			"player3()": "38dbdae1",
			"player4()": "114f0e49",
			"reset()": "d826f88f",
			"start(uint256)": "95805dad"
		}
	},
	"abi": [
		{
			"inputs": [],
			"stateMutability": "nonpayable",
			"type": "constructor"
		},
		{
			"inputs": [],
			"name": "board",
			"outputs": [
				{
					"internalType": "uint256",
					"name": "",
					"type": "uint256"
				}
			],
			"stateMutability": "view",
			"type": "function"
		},
		{
			"inputs": [],
			"name": "gameState",
			"outputs": [
				{
					"internalType": "uint256",
					"name": "",
					"type": "uint256"
				}
			],
			"stateMutability": "view",
			"type": "function"
		},
		{
			"inputs": [],
			"name": "join",
			"outputs": [],
			"stateMutability": "nonpayable",
			"type": "function"
		},
		{
			"inputs": [
				{
					"internalType": "uint256",
					"name": "direction",
					"type": "uint256"
				}
			],
			"name": "move",
			"outputs": [],
			"stateMutability": "nonpayable",
			"type": "function"
		},
		{
			"inputs": [],
			"name": "owner",
			"outputs": [
				{
					"internalType": "address",
					"name": "",
					"type": "address"
				}
			],
			"stateMutability": "view",
			"type": "function"
		},
		{
			"inputs": [],
			"name": "player1",
			"outputs": [
				{
					"internalType": "address",
					"name": "",
					"type": "address"
				}
			],
			"stateMutability": "view",
			"type": "function"
		},
		{
			"inputs": [],
			"name": "player2",
			"outputs": [
				{
					"internalType": "address",
					"name": "",
					"type": "address"
				}
			],
			"stateMutability": "view",
			"type": "function"
		},
		{
			"inputs": [],
			"name": "player3",
			"outputs": [
				{
					"internalType": "address",
					"name": "",
					"type": "address"
				}
			],
			"stateMutability": "view",
			"type": "function"
		},
		{
			"inputs": [],
			"name": "player4",
			"outputs": [
				{
					"internalType": "address",
					"name": "",
					"type": "address"
				}
			],
			"stateMutability": "view",
			"type": "function"
		},
		{
			"inputs": [],
			"name": "reset",
			"outputs": [],
			"stateMutability": "nonpayable",
			"type": "function"
		},
		{
			"inputs": [
				{
					"internalType": "uint256",
					"name": "gameSize",
					"type": "uint256"
				}
			],
			"name": "start",
			"outputs": [],
			"stateMutability": "nonpayable",
			"type": "function"
		}
	]
}